{
  "_format": "hh-sol-artifact-1",
  "contractName": "FundMe",
  "sourceName": "contracts/FundMe.sol",
  "abi": [
    {
      "inputs": [],
      "stateMutability": "nonpayable",
      "type": "constructor"
    },
    {
      "anonymous": false,
      "inputs": [
        {
          "indexed": false,
          "internalType": "address",
          "name": "from",
          "type": "address"
        },
        {
          "indexed": false,
          "internalType": "uint256",
          "name": "amount",
          "type": "uint256"
        },
        {
          "indexed": false,
          "internalType": "string",
          "name": "message",
          "type": "string"
        }
      ],
      "name": "FundEvent",
      "type": "event"
    },
    {
      "inputs": [
        {
          "internalType": "string",
          "name": "message",
          "type": "string"
        }
      ],
      "name": "fundFunction",
      "outputs": [],
      "stateMutability": "payable",
      "type": "function"
    },
    {
      "inputs": [],
      "name": "getFundCount",
      "outputs": [
        {
          "internalType": "uint256",
          "name": "",
          "type": "uint256"
        }
      ],
      "stateMutability": "view",
      "type": "function"
    },
    {
      "inputs": [],
      "name": "getFundHistory",
      "outputs": [
        {
          "components": [
            {
              "internalType": "address",
              "name": "From",
              "type": "address"
            },
            {
              "internalType": "uint256",
              "name": "amount",
              "type": "uint256"
            },
            {
              "internalType": "string",
              "name": "message",
              "type": "string"
            }
          ],
          "internalType": "struct FundMe.FundStruct[]",
          "name": "",
          "type": "tuple[]"
        }
      ],
      "stateMutability": "view",
      "type": "function"
    },
    {
      "inputs": [],
      "name": "withdraw",
      "outputs": [],
      "stateMutability": "nonpayable",
      "type": "function"
    }
  ],
  "bytecode": "0x60a060405234801561001057600080fd5b503373ffffffffffffffffffffffffffffffffffffffff1660808173ffffffffffffffffffffffffffffffffffffffff1660601b8152505060805160601c610a51610065600039600060d80152610a516000f3fe60806040526004361061003f5760003560e01c806311648a4d146100445780633ccfd60b1461006f5780639fad01cc14610086578063ace84392146100a2575b600080fd5b34801561005057600080fd5b506100596100cd565b604051610066919061078a565b60405180910390f35b34801561007b57600080fd5b506100846100d6565b005b6100a0600480360381019061009b9190610533565b6101a7565b005b3480156100ae57600080fd5b506100b76102d7565b6040516100c49190610768565b60405180910390f35b60008054905090565b7f000000000000000000000000000000000000000000000000000000000000000073ffffffffffffffffffffffffffffffffffffffff163373ffffffffffffffffffffffffffffffffffffffff161461012e57600080fd5b60003373ffffffffffffffffffffffffffffffffffffffff164760405161015490610715565b60006040518083038185875af1925050503d8060008114610191576040519150601f19603f3d011682016040523d82523d6000602084013e610196565b606091505b50509050806101a457600080fd5b50565b600034116101b457600080fd5b60016000808282546101c69190610877565b92505081905550600160405180606001604052803373ffffffffffffffffffffffffffffffffffffffff16815260200134815260200183815250908060018154018082558091505060019003906000526020600020906003020160009091909190915060008201518160000160006101000a81548173ffffffffffffffffffffffffffffffffffffffff021916908373ffffffffffffffffffffffffffffffffffffffff160217905550602082015181600101556040820151816002019080519060200190610296929190610428565b5050507fd272e36ed1be2da268e2d591424a669ee12cb616c0b4dd9ad730d1325278f2c23334836040516102cc9392919061072a565b60405180910390a150565b60606001805480602002602001604051908101604052809291908181526020016000905b8282101561041f57838290600052602060002090600302016040518060600160405290816000820160009054906101000a900473ffffffffffffffffffffffffffffffffffffffff1673ffffffffffffffffffffffffffffffffffffffff1673ffffffffffffffffffffffffffffffffffffffff1681526020016001820154815260200160028201805461038e9061094b565b80601f01602080910402602001604051908101604052809291908181526020018280546103ba9061094b565b80156104075780601f106103dc57610100808354040283529160200191610407565b820191906000526020600020905b8154815290600101906020018083116103ea57829003601f168201915b505050505081525050815260200190600101906102fb565b50505050905090565b8280546104349061094b565b90600052602060002090601f016020900481019282610456576000855561049d565b82601f1061046f57805160ff191683800117855561049d565b8280016001018555821561049d579182015b8281111561049c578251825591602001919060010190610481565b5b5090506104aa91906104ae565b5090565b5b808211156104c75760008160009055506001016104af565b5090565b60006104de6104d9846107d6565b6107a5565b9050828152602081018484840111156104f657600080fd5b610501848285610909565b509392505050565b600082601f83011261051a57600080fd5b813561052a8482602086016104cb565b91505092915050565b60006020828403121561054557600080fd5b600082013567ffffffffffffffff81111561055f57600080fd5b61056b84828501610509565b91505092915050565b600061058083836106a7565b905092915050565b610591816108cd565b82525050565b6105a0816108cd565b82525050565b60006105b182610816565b6105bb8185610839565b9350836020820285016105cd85610806565b8060005b8581101561060957848403895281516105ea8582610574565b94506105f58361082c565b925060208a019950506001810190506105d1565b50829750879550505050505092915050565b600061062682610821565b6106308185610855565b9350610640818560208601610918565b61064981610a0a565b840191505092915050565b600061065f82610821565b6106698185610866565b9350610679818560208601610918565b61068281610a0a565b840191505092915050565b600061069a60008361084a565b9150600082019050919050565b60006060830160008301516106bf6000860182610588565b5060208301516106d260208601826106f7565b50604083015184820360408601526106ea828261061b565b9150508091505092915050565b610700816108ff565b82525050565b61070f816108ff565b82525050565b60006107208261068d565b9150819050919050565b600060608201905061073f6000830186610597565b61074c6020830185610706565b818103604083015261075e8184610654565b9050949350505050565b6000602082019050818103600083015261078281846105a6565b905092915050565b600060208201905061079f6000830184610706565b92915050565b6000604051905081810181811067ffffffffffffffff821117156107cc576107cb6109db565b5b8060405250919050565b600067ffffffffffffffff8211156107f1576107f06109db565b5b601f19601f8301169050602081019050919050565b6000819050602082019050919050565b600081519050919050565b600081519050919050565b6000602082019050919050565b600082825260208201905092915050565b600081905092915050565b600082825260208201905092915050565b600082825260208201905092915050565b6000610882826108ff565b915061088d836108ff565b9250827fffffffffffffffffffffffffffffffffffffffffffffffffffffffffffffffff038211156108c2576108c161097d565b5b828201905092915050565b60006108d8826108df565b9050919050565b600073ffffffffffffffffffffffffffffffffffffffff82169050919050565b6000819050919050565b82818337600083830152505050565b60005b8381101561093657808201518184015260208101905061091b565b83811115610945576000848401525b50505050565b6000600282049050600182168061096357607f821691505b60208210811415610977576109766109ac565b5b50919050565b7f4e487b7100000000000000000000000000000000000000000000000000000000600052601160045260246000fd5b7f4e487b7100000000000000000000000000000000000000000000000000000000600052602260045260246000fd5b7f4e487b7100000000000000000000000000000000000000000000000000000000600052604160045260246000fd5b6000601f19601f830116905091905056fea26469706673582212207c50c30aa3bb5a573dcecae7940b93ab55b89248475d86daf685871e0cabcb2864736f6c63430008000033",
  "linkReferences": {},
  "deployedLinkReferences": {}
}