{
  "_format": "hh-sol-artifact-1",
  "contractName": "FundMe",
  "sourceName": "contracts/FundMe.sol",
  "abi": [
    {
      "inputs": [],
      "stateMutability": "nonpayable",
      "type": "constructor"
    },
    {
      "anonymous": false,
      "inputs": [
        {
          "indexed": false,
          "internalType": "address",
          "name": "from",
          "type": "address"
        },
        {
          "indexed": false,
          "internalType": "uint256",
          "name": "amount",
          "type": "uint256"
        },
        {
          "indexed": false,
          "internalType": "string",
          "name": "message",
          "type": "string"
        }
      ],
      "name": "FundEvent",
      "type": "event"
    },
    {
      "inputs": [
        {
          "internalType": "string",
          "name": "message",
          "type": "string"
        }
      ],
      "name": "fundFunction",
      "outputs": [],
      "stateMutability": "payable",
      "type": "function"
    },
    {
      "inputs": [],
      "name": "getFundCount",
      "outputs": [
        {
          "internalType": "uint256",
          "name": "",
          "type": "uint256"
        }
      ],
      "stateMutability": "view",
      "type": "function"
    },
    {
      "inputs": [],
      "name": "getFundHistory",
      "outputs": [
        {
          "components": [
            {
              "internalType": "address",
              "name": "From",
              "type": "address"
            },
            {
              "internalType": "uint256",
              "name": "amount",
              "type": "uint256"
            },
            {
              "internalType": "string",
              "name": "message",
              "type": "string"
            },
            {
              "internalType": "uint256",
              "name": "timestamp",
              "type": "uint256"
            }
          ],
          "internalType": "struct FundMe.FundStruct[]",
          "name": "",
          "type": "tuple[]"
        }
      ],
      "stateMutability": "view",
      "type": "function"
    },
    {
      "inputs": [],
      "name": "withdraw",
      "outputs": [],
      "stateMutability": "nonpayable",
      "type": "function"
    }
  ],
  "bytecode": "0x60a060405234801561001057600080fd5b503373ffffffffffffffffffffffffffffffffffffffff1660808173ffffffffffffffffffffffffffffffffffffffff1660601b8152505060805160601c610a7e610065600039600060d80152610a7e6000f3fe60806040526004361061003f5760003560e01c806311648a4d146100445780633ccfd60b1461006f5780639fad01cc14610086578063ace84392146100a2575b600080fd5b34801561005057600080fd5b506100596100cd565b60405161006691906107b7565b60405180910390f35b34801561007b57600080fd5b506100846100d6565b005b6100a0600480360381019061009b919061054d565b6101a7565b005b3480156100ae57600080fd5b506100b76102e7565b6040516100c49190610795565b60405180910390f35b60008054905090565b7f000000000000000000000000000000000000000000000000000000000000000073ffffffffffffffffffffffffffffffffffffffff163373ffffffffffffffffffffffffffffffffffffffff161461012e57600080fd5b60003373ffffffffffffffffffffffffffffffffffffffff164760405161015490610742565b60006040518083038185875af1925050503d8060008114610191576040519150601f19603f3d011682016040523d82523d6000602084013e610196565b606091505b50509050806101a457600080fd5b50565b600034116101b457600080fd5b60016000808282546101c691906108a4565b92505081905550600160405180608001604052803373ffffffffffffffffffffffffffffffffffffffff16815260200134815260200183815260200142815250908060018154018082558091505060019003906000526020600020906004020160009091909190915060008201518160000160006101000a81548173ffffffffffffffffffffffffffffffffffffffff021916908373ffffffffffffffffffffffffffffffffffffffff16021790555060208201518160010155604082015181600201908051906020019061029c929190610442565b506060820151816003015550507fd272e36ed1be2da268e2d591424a669ee12cb616c0b4dd9ad730d1325278f2c23334836040516102dc93929190610757565b60405180910390a150565b60606001805480602002602001604051908101604052809291908181526020016000905b8282101561043957838290600052602060002090600402016040518060800160405290816000820160009054906101000a900473ffffffffffffffffffffffffffffffffffffffff1673ffffffffffffffffffffffffffffffffffffffff1673ffffffffffffffffffffffffffffffffffffffff1681526020016001820154815260200160028201805461039e90610978565b80601f01602080910402602001604051908101604052809291908181526020018280546103ca90610978565b80156104175780601f106103ec57610100808354040283529160200191610417565b820191906000526020600020905b8154815290600101906020018083116103fa57829003601f168201915b505050505081526020016003820154815250508152602001906001019061030b565b50505050905090565b82805461044e90610978565b90600052602060002090601f01602090048101928261047057600085556104b7565b82601f1061048957805160ff19168380011785556104b7565b828001600101855582156104b7579182015b828111156104b657825182559160200191906001019061049b565b5b5090506104c491906104c8565b5090565b5b808211156104e15760008160009055506001016104c9565b5090565b60006104f86104f384610803565b6107d2565b90508281526020810184848401111561051057600080fd5b61051b848285610936565b509392505050565b600082601f83011261053457600080fd5b81356105448482602086016104e5565b91505092915050565b60006020828403121561055f57600080fd5b600082013567ffffffffffffffff81111561057957600080fd5b61058584828501610523565b91505092915050565b600061059a83836106c1565b905092915050565b6105ab816108fa565b82525050565b6105ba816108fa565b82525050565b60006105cb82610843565b6105d58185610866565b9350836020820285016105e785610833565b8060005b858110156106235784840389528151610604858261058e565b945061060f83610859565b925060208a019950506001810190506105eb565b50829750879550505050505092915050565b60006106408261084e565b61064a8185610882565b935061065a818560208601610945565b61066381610a37565b840191505092915050565b60006106798261084e565b6106838185610893565b9350610693818560208601610945565b61069c81610a37565b840191505092915050565b60006106b4600083610877565b9150600082019050919050565b60006080830160008301516106d960008601826105a2565b5060208301516106ec6020860182610724565b50604083015184820360408601526107048282610635565b91505060608301516107196060860182610724565b508091505092915050565b61072d8161092c565b82525050565b61073c8161092c565b82525050565b600061074d826106a7565b9150819050919050565b600060608201905061076c60008301866105b1565b6107796020830185610733565b818103604083015261078b818461066e565b9050949350505050565b600060208201905081810360008301526107af81846105c0565b905092915050565b60006020820190506107cc6000830184610733565b92915050565b6000604051905081810181811067ffffffffffffffff821117156107f9576107f8610a08565b5b8060405250919050565b600067ffffffffffffffff82111561081e5761081d610a08565b5b601f19601f8301169050602081019050919050565b6000819050602082019050919050565b600081519050919050565b600081519050919050565b6000602082019050919050565b600082825260208201905092915050565b600081905092915050565b600082825260208201905092915050565b600082825260208201905092915050565b60006108af8261092c565b91506108ba8361092c565b9250827fffffffffffffffffffffffffffffffffffffffffffffffffffffffffffffffff038211156108ef576108ee6109aa565b5b828201905092915050565b60006109058261090c565b9050919050565b600073ffffffffffffffffffffffffffffffffffffffff82169050919050565b6000819050919050565b82818337600083830152505050565b60005b83811015610963578082015181840152602081019050610948565b83811115610972576000848401525b50505050565b6000600282049050600182168061099057607f821691505b602082108114156109a4576109a36109d9565b5b50919050565b7f4e487b7100000000000000000000000000000000000000000000000000000000600052601160045260246000fd5b7f4e487b7100000000000000000000000000000000000000000000000000000000600052602260045260246000fd5b7f4e487b7100000000000000000000000000000000000000000000000000000000600052604160045260246000fd5b6000601f19601f830116905091905056fea2646970667358221220ea9a4b9fd1622557c1bd349daf023ba12494b329ea8d40ff45f432c7ac7496e764736f6c63430008000033",
  "linkReferences": {},
  "deployedLinkReferences": {}
}